:020000041000EA
:1000000000B5324B212058609868022188439860DF
:10001000D860186158612E4B002199600221596106
:100020000121F02299502B49196001219960352056
:1000300000F044F80222904214D00621196600F024
:1000400034F8196E01211966002018661A6600F04E
:100050002CF8196E196E196E052000F02FF8012189
:100060000842F9D1002199601B49196000215960AB
:100070001A491B48016001219960EB211966A021F2
:10008000196600F012F800219960164914480160C1
:100090000121996001BC002800D000471248134993
:1000A000086003C880F30888084703B5996A0420EC
:1000B0000142FBD001200142F8D103BD02B5186610
:1000C0001866FFF7F2FF186E186E02BD00000240BE
:1000D000000000180000070000035F00212200005C
:1000E000F4000018222000A00001001008ED00E03C
:1000F00000000000000000000000000074B24E7A12
:1001000000200420F7010010C3010010C5010010F9
:10011000C1010010C1010010C1010010C101001097
:10012000C1010010C1010010C1010010C701001081
:10013000C1010010C1010010C9010010CB01001065
:10014000CD010010CD010010CD010010CD01001037
:10015000CD010010CD010010CD010010CD01001027
:10016000CD010010CD010010CD010010CD01001017
:10017000CD010010CD010010CD010010CD01001007
:10018000CD010010CD010010CD010010CD010010F7
:10019000CD010010CD010010CD010010CD010010E7
:1001A000CD010010CD010010CD010010CD010010D7
:1001B000CD010010CD010010CD010010CD010010C7
:1001C00000BE00BE00BE00BE00BE00BEEFF3058054
:1001D000103800BEF2EB8871244900104449001029
:1001E0003402001090A31AE700201F49086006C8D7
:1001F00081F3088810471D48006800282FD10DA4FE
:100200000ECC002902D000F012F8F9E71849194A7B
:10021000002000E001C19142FCD1174988471749ED
:1002200088471749884700BEFDE701C901C29A42C5
:10023000FBD3704744490010C0000020700F00201D
:10024000F45700100000042000000420F4570010B0
:10025000001004200010042000000000704709482E
:1002600002F0CEF80047000008ED00E0000000D0EA
:10027000700F00204C1A0020792200105503001046
:100280006D2300105756000006005250ABB3605368
:100290008847001006005250861C03029847001041
:1002A000060052505422A29DA4470010050052504F
:1002B000DE65F468F4570010F8B5C0460448054BF5
:1002C00010B5834203D0044B002B00D0984710BDDB
:1002D000700F0020700F0020000000000648074942
:1002E000091A8B10C90FC91810B5491003D0044B57
:1002F000002B00D0984710BD700F0020700F002019
:100300000000000010B5074C2378002B09D1FFF73F
:10031000D5FF054B002B02D0044800E000BF0123AD
:10032000237010BD7010002000000000B8450010C0
:10033000054B10B5002B03D00449054800E000BF71
:10034000FFF7CCFF10BDC046000000007410002075
:10035000B8450010F0B5DE4657464E464546E0B576
:1003600083B004F03FF8002002F0A2FE494B002BBE
:1003700001D000E000BF484B484D9B46484B494EDA
:100380009846494C01200021404202F001FF2B68B1
:10039000002B19D001F0C8FA002951D0FA2200230D
:1003A000920002F099F833682A68C01A90420BD381
:1003B0009B1833605B46187804F01EF85B460122F8
:1003C0001B7853405A46137001F0AEFA2768002993
:1003D0002ED0FA220023920002F07EF8C01B0928DA
:1003E000D0D93B000A33236004F010F8824602F0B3
:1003F0003FFE8146002828D05346002B3FD10020E5
:1004000003F05CFC0028BDD043461B78002B39D19B
:1004100001200023424600214042137002F0B8FE42
:100420002B68002BB6D101F07FFA27680029D0D1C4
:10043000FA21890002F012F8C01B0928A2D9D0E7DE
:10044000FA21890002F00AF8ADE7002003F036FC3B
:10045000002897D05346002BD6D04B464A460093EF
:100460006B469A8004236A460121137000206B4674
:10047000002203F081FC01234246137082E702F060
:10048000FFFD7FE7002300220121002003F074FC20
:10049000BEE7C0460000000080170020780E002054
:1004A00083170020D0100020D4100020FA22024B25
:1004B00092001A607047C046780E0020FA22014B65
:1004C0001A607047780E0020014B024A1A6070478C
:1004D000780E0020C409000010B502F0C1FD431ED3
:1004E0009841034B40421840024BFA30186010BD4F
:1004F000EE020000780E002030B50C7889B001348F
:10050000E4B2042C01D909B030BD03F07FFF05002F
:10051000002003F0D3FB0028F5D0032C2FD0042CAF
:1005200017D0012C0CD0022CEDD1002302930193A3
:100530000533002202210093002003F063FCE2E770
:10054000002D3CD1324C2378002B52D10023237054
:10055000D9E705AC0B220021200002F097FA002D0C
:100560001BD11B236B441D705D709D70DD70A571E8
:10057000284D2B78002B43D100232B70C3E705AA0D
:10058000002D2BD1244C15802378002BDED00223A4
:100590000321002003F0AEFBD8E71B230022012536
:1005A0006B445A709A70DA701D7022000B2304217C
:1005B0000020A57103F09EFB164B1D70A3E70023DE
:1005C0006A460593138304331375012105AB00229A
:1005D000002003F0D1FB0E4B1C7094E7EA230321AB
:1005E00013800020E83B03F085FB01220A4B1A70C0
:1005F00089E7002300220121002003F0BDFBA5E7CD
:100600000B2322000421002003F074FBB4E7C04652
:1006100083170020811700208217002000207047D8
:1006200010B502A80088022A00D010BD0129FCD113
:100630000028FAD01B781A4206D00022064B01206F
:100640001A6003F0D9FEF0E7002003F0D5FEFA228D
:10065000014B92001A60E8E7780E002000487047CE
:10066000E845001000487047FC45001000487047FE
:10067000EC460010F0B5DE4657464E464546E0B51E
:100680008DB000282AD0032838D000D975E2194B44
:100690008000C658300003F0F1FE0500202800D984
:1006A00069E2002800D16AE20023134CA21CF15C2D
:1006B0000133118002329D42F9D8C02301359B00DD
:1006C0006D001D43ABB203932000039B23800DB04C
:1006D0003CBC90469946A246AB46F0BD054B064C45
:1006E00019680222A01C02F0D7F9C1239B000393D2
:1006F000EAE7C0467C0E00208C1000201C4B002B2B
:1007000000D114E204AB10211800029303F058FE4C
:1007100082460190102801D9102301935346002BE3
:1007200000D12CE2C025019BAD009B0002331D438C
:10073000ABB2104A039308AB19001400E0CCE0C13F
:100740000F25246817000C6002990B4C09780D40A6
:100750005D5D8B46A5801D0043CF43C559463F686C
:1007600009112F60595C618051460129ACD905E01F
:10077000C1430010B84500108C1000201900100073
:10078000E0C8E0C105688A460D60029983464D784D
:10079000A8460F25AC46454667463D405D5D1700BF
:1007A00025811D0043CF43C5584605685046056066
:1007B00045462D115D5D0198E580022800D183E753
:1007C0001D00170043CF43C55D4656462D68356072
:1007D00002998D78A846654647463D405D5D170005
:1007E000A5811D0043CF43C55D4656462D68356043
:1007F00045462D115D5D01986581032800D163E7B1
:100800001D00170043CF43C55D4656462D68356031
:100810000299CD78A846654647463D405D5D170084
:1008200025821D0043CF43C55D4656462D68356081
:1008300045462D115D5D0198E581042800D143E70F
:100840001D00170043CF43C55D4656462D683560F1
:1008500002990D79A846654647463D405D5D170003
:10086000A5821D0043CF43C55D4656462D683560C1
:1008700045462D115D5D01986582052800D123E76D
:100880001D00170043CF43C55D4656462D683560B1
:1008900002994D79A846654647463D405D5D170083
:1008A00025831D0043CF43C55D4656462D68356000
:1008B00045462D115D5D0198E582062800D103E7CC
:1008C0001D00170043CF43C55D4656462D68356071
:1008D00002998D79A846654647463D405D5D170003
:1008E000A5831D0043CF43C55D4656462D68356040
:1008F00045462D115D5D01986583072800D1E3E62B
:1009000019001000E0C8E0C15D462968554629601D
:10091000654602991000C9790D408846595D2184C9
:100920001900E0C8E0C15D46296855462960414686
:100930000911595C0198E183082800D1C4E6190027
:100940001000E0C8E0C15D4629685546296065464B
:1009500002991000097A0D408846595DA18419005A
:10096000E0C8E0C15D462968554629604146091145
:10097000595C01986184092800D1A5E6190010008E
:10098000E0C8E0C15D462968554629606546029980
:100990001000497A0D408846595D21851900E0C84C
:1009A000E0C15D4629685546296041460911595CF8
:1009B0000198E1840A2800D186E619001000E0C8F9
:1009C000E0C15D46296855462960654602991000D8
:1009D000897A0D408846595DA1851900E0C8E0C1BB
:1009E0005D4629685546296041460911595C0198C0
:1009F00061850B2800D167E619001000E0C8E0C14E
:100A00005D4656462D6835600299CD7AA8460F2579
:100A1000AC464546664635405D5D160025861D00A0
:100A200083CE83C55D4656462D68356045462D11FB
:100A30005D5D0198E5850C2800D145E61D00160096
:100A400083CE83C55D4656462D68356002990D7B81
:100A5000A8466546464635405D5D1600A5861D00E4
:100A600083CE83C55D4656462D68356045462D11BB
:100A70005D5D019865860D2800D125E61D001600F4
:100A800083CE83C55D4656462D68356002994D7B01
:100A9000A8466546464635405D5D160025871D0023
:100AA00083CE83C55D4656462D68356045462D117B
:100AB0005D5D0198E5860E2800D105E61D00160053
:100AC00083CE83C55D4656462D68356002998D7B81
:100AD000A8466546464635405D5D1600A5871D0063
:100AE00083CE83C55D4656462D68356045462D113B
:100AF0005D5D019865870F2800D1E5E51D001600B2
:100B000083CE83C5584605685046664605600299FF
:100B1000CF7B3E409D5D4026A5531D0043CA43C583
:100B2000514612683F110A60DB5DE387CCE5164B46
:100B3000164A059308AB18001500154F049752CDBF
:100B400052C02968134C016004A902910F21394059
:100B5000595CA846A18017001900844661CF61C185
:100B60004146604609680160197861800A4903912D
:100B70000821019102E6202593E50020A7E5074B17
:100B8000044C0393A0E5C04689ABCDEFB8450010F7
:100B9000012345678C10002022030000020300009F
:100BA0000123D0228340120693629361094A830095
:100BB0009446402263441968C0004A40C021114055
:100BC0008022520113431960034B9C460523604465
:100BD0004360704704C0014000400140024B186868
:100BE0008007C00F7047C04600C00640F8B5EFF35D
:100BF000108772B60E4E3368002BFCD0BFF35F8FA8
:100C0000CB08C4180725A446C45C01230D40AB40A3
:100C100018002040234208D1624623431370BFF3DB
:100C20005F8F306087F31088F8BD100001F0A2FBE1
:100C30002C0100D0F8B5CE4647468C4680B5EFF380
:100C4000108872B6214D2C68002CFCD0BFF35F8F4A
:100C50009A422CD8D4080721055D061901241140B9
:100C60008C402C421FD007218946063909E0D40860
:100C7000055D06194C460F001440A7403C002F426A
:100C800011D001329342F2D201204042BFF35F8F74
:100C900000220E4B1A6088F3108800280FDB0CBC72
:100CA00090469946F8BD2C4310003470EEE7BFF330
:100CB0005F8F00232B6088F3108801204042634639
:100CC000002BECD0089801F055FBC0462C0100D059
:100CD0000021044B044ABFF35F8F02C39342FAD151
:100CE0007047C046000100D0800100D0044A10784F
:100CF000431CDBB2172B00D9102313707047C0467A
:100D00008C0E002000B5054B83B001000093182223
:100D10001F230348FFF78EFF03B000BD10470010EC
:100D2000D012002001238340002904D0034A13601D
:100D3000034A13607047034A1360FBE780E200E058
:100D400000E100E080E100E0024B10309B68800091
:100D5000C058704700ED00E070B50D00EFF310864D
:100D600072B60F4A1368002BFCD0BFF35F8F0D4B98
:100D700010309B6884001B590B4A934203D09D425C
:100D800001D001F00FFB074B9B681D51BFF35F8F34
:100D9000BFF35F8F0022024B1A6086F3108870BD8C
:100DA000240100D000ED00E0CD010010F0B5574661
:100DB0004E464546DE46E0B5894683B0050017003D
:100DC000EFF3108A72B65E4A1368002BFCD0BFF3B3
:100DD0005F8F00205B4B18569B46002800DA6CE0C2
:100DE0005A464400584E2418A400331998469B795B
:100DF00010351370554BAA009B6801929B589C4676
:100E00009B1B2F2B28D8012261469143CB79BB42F3
:100E100008D86AE053009B189B00F318DD79BD42A7
:100E200051D9190006228A56002AF3DA0B1D9B4677
:100E3000474E43465C46043B1B1B1B05454C5B0D64
:100E400023438B80887141468A714A46424B8E808B
:100E50000B60CF718A601BE0404B9C4542D14246FB
:100E60003F4B023413803F4B3619043B9E1B360523
:100E7000384B760D1E433C4B56809380FF23D77131
:100E8000937143464A469A60012342461A43944668
:100E900061462E4B019A9B689950BFF35F8FBFF359
:100EA0005F8F0022264B1A608AF3108803B03CBC87
:100EB00090469946A246AB46F0BD01F073FA5B46F8
:100EC000002018568CE70B1D9B468B8804345B056D
:100ED0001B155B4436199E1BE0233605760D1B025D
:100EE0001E43A6E701F05EFAB9E745460B001F482E
:100EF0009B1B5B415843000D194B2B80A31C9C4648
:100F0000B4446546174B0434043B5B1B1B05114D71
:100F10005B0DAC462B43454636196B800B1F9E1B61
:100F20006346A87148463605760D1E430A4BAE80CF
:100F3000EF71A8600B60434613439C46A8E7C04688
:100F4000240100D088170020900E002000ED00E062
:100F500001BD000000E0FFFF01488047CD01001007
:100F600000A1FFFFC00E002001BDFFFFAAAA0000E4
:100F7000F0B5DE4657464E464546E0B50C0083B018
:100F8000EFF3108972B6594A1368002BFCD0BFF3F7
:100F90005F8F574B9A68030010339F00D559554A0D
:100FA0009046954232D0A54243D0534EAA1B2F2AD9
:100FB0002CD80122824092465146504A1268114074
:100FC000019151464E4A1160BFF35F8FEFF30582E6
:100FD0009346002A33D101232A009A4393689C4206
:100FE00008D178E04B005B189B00F3189968A14288
:100FF0002AD01A00062151560029F3DA019B002B52
:1010000019D052463F4B1A603C4B1A60384B9B68D4
:10101000DD51BFF35F8FBFF35F8F0022334B1A6048
:1010200089F3108803B03CBC90469946A246AB4673
:10103000F0BD1500EAE75246314B1A60E6E79342ED
:10104000C9D001F0AFF9C6E706215956002922DBC5
:101050004A005018800034188046A0689860E079F3
:10106000D871062020569871A0797F2824D8A488AA
:10107000F01A6405241544440019E0240005400DCD
:1010800024022043988052181F4B9200B6181A78F9
:101090001970B271B2E7594600290FD1FF31917131
:1010A0001A49918018490A789A71194A9B1B5B4129
:1010B0005A43120D0A70A1E71648E3E7164A17498A
:1010C000D21A083A5002400D01439980144952083F
:1010D0000A43DA8092E70621515613000029B7DA55
:1010E0005A46002AEAD14546DCE7C046240100D032
:1010F00000ED00E0CD010010900E002000E100E0C6
:1011000080E100E080E200E08817002001BDFFFFE1
:10111000AAAA000001BD0000CA0E002000F0FFFFD7
:1011200000F8FFFFF0B5EFF3058101240443EFF36E
:10113000108672B6214A1368002BFCD0BFF35F8F74
:101140001F4B05001F4AED1A6D416A43120D1E4DDB
:101150008900AF6852B27F58A7421CD00621595669
:1011600091421CD012215956914222D01E2159562B
:10117000914220D02A2159560324914210D0134B7A
:1011800019781A708171BFF35F8F00220B4B1A60C0
:1011900086F31088F0BDAB680D4C5C50EFE700247F
:1011A0006100091989005B18FF219971094999802B
:1011B000E5E70124F4E70224F2E7C046240100D069
:1011C000900E0020AAAA000000ED00E08817002081
:1011D000CD01001001BDFFFF054B064A1360064A12
:1011E000136053609360D3601361536193617047E0
:1011F0008080808000E400E004E400E0024B9C4634
:1012000061448900016070474000003410B504005B
:10121000FFF76CFD01002000FFF7F0FFFF232371B3
:10122000BFF35F8F10BDC04610B50400FFF75EFD31
:1012300001002000FFF7E2FFFF23A380BFF35F8FD1
:1012400010BDC04610B504000120FFF75BFD034B45
:10125000C3189B002360BFF35F8F10BD40000034B4
:1012600083680B4810B58446614462440901120149
:101270009A18591854684B6801209C4201D802D032
:101280000020C0B210BD12680B689A42F9D8F7E787
:10129000FFFFFF0F0A4B1968EFF3108072B60A6860
:1012A000002AFCD0BFF35F8F1B68BFF35F8F002263
:1012B0001A6080F3108840BF002000217047C046AC
:1012C0006C170020F8B5574645464E46DE46E0B559
:1012D00099460CAB19780DAB1B78050090469A46E1
:1012E0000768002912D1BE7B002E45D074003B68F0
:1012F000A419033C1B195A783100BA73002A00D193
:10130000FA7300229A705A701A7003E00E004C00B3
:101310006418033C2C4B00229C46AB6861449C46FD
:101320004346090161440B604B464B600A9B8B604E
:101330000B9BCB603B681B199A705A701A707B7BB1
:101340009B46002B2CD032005946B8687B689847E2
:101350003A68002817D05B4658465B005B44141976
:10136000033BA070D118D35C002B00D063705B46A8
:101370000E707B73B34514D030003CBC9046994648
:10138000A246AB46F8BD5B465B005B44033BD3180B
:101390009E701119125D002A00D05A705B460B70C6
:1013A0007E7342464B46287D00F00EFB041E06D09D
:1013B0005346002B03D13100286800F04BFD0E9BF3
:1013C000002BD9D01C70D7E7FFFFFF0FF0B5DE462A
:1013D00057464E4645460023E0B58BB00893674B11
:1013E0008200D45800239B46099000F09DFA626861
:1013F00006000F00EFF3108572B61368002BFCD0C7
:10140000BFF35F8F23689C465B7B9946002B00D11E
:1014100069E0A2685A4B90464B441B0198444346EE
:101420001A685B6810001900801BB941002900DCB4
:1014300063E0099800F0C8FA0023002298460023D0
:101440000692079300239A466368BFF35F8F5A465C
:101450001A6085F310885346002B08D10028C4D1A8
:101460000BB03CBC90469946A246AB46F0BD089BEB
:10147000414618024B461843D047626806000F00E9
:10148000EFF3108572B61368002BFCD0BFF35F8FAB
:10149000002F50DB33003B4302D02369002B61D186
:1014A0002368DA7B002A07D051008A1819688C4615
:1014B00049466244033A51709A7B002A01D14A4658
:1014C0009A734A46DA734B46E168013BCA5C0132C3
:1014D000CA545B4623616368BFF35F8F5A461A6044
:1014E00085F3108881E700230022984600230692A6
:1014F0000793002300209A46A6E7002902D100287E
:1015000000D096E70021604600F002FC43461A68CE
:101510005B680692079343469B689A464346DB689E
:101520009846E3684B44013B1B7808931B02034336
:101530002361002088E72369002BB1D0069A079B1E
:10154000921BBB41002B15DB5946049101210391ED
:101550004946029141460191514620000091FFF712
:10156000B1FEB6E700F0E0F932003B0012184B4143
:10157000002BE9DA0122034B5242E5E75017002025
:10158000FFFFFF0FFFFFFF7F10B5144C6368002BB8
:1015900004D00A211248FFF731FE10BD2300114A82
:1015A0001021206800F0CEFA032000F0B1F90320EA
:1015B00000F074FA03200C4900F0C0F9FFF796FB25
:1015C0000A4B9C4603232375D0231B061B686044EB
:1015D0006375074B80006060DC60DAE7D80E00209E
:1015E0006C17002061120010CD1300104000003471
:1015F00050170020F0B54E464546DE465746E0B54A
:1016000085B0019310AB1B7880460393002300261E
:101610009946009243465A68EFF3108B72B61368EE
:10162000002BFCD0BFF35F8F43461D68AC7B002CC2
:1016300043D067002B683F19033FDB195A78AA7320
:10164000002A00D1EA7342469E705E701E70926856
:10165000494B94460099019AE3181B0163441960B1
:101660005A600E9A9A600F9ADA602B68DB199E70A6
:101670005E701E706B7B9A46002B68D022001900AA
:10168000A8686B6898472A68002853D0534650468C
:101690005B005344D719033BB870D118D35C002BBF
:1016A00000D07B7053460C706B73544550D043464A
:1016B000DB681B19013B187800E0002043465B689B
:1016C000BFF35F8F1E608BF31088002C51D04B4608
:1016D000002B08D10002204305B03CBC904699463F
:1016E000A246AB46F0BD039B002B40D00E9B0020D2
:1016F0000F999847030004000D000B4337D00029D1
:101700000ADA009A019B121BAB4100920193002B55
:101710000ADB039B99467DE700F006F924184D414A
:1017200000940195002DF4DA0123144C5B420093E0
:101730000194EEE753465B005344033BD3189C707F
:10174000D119D25D002A00D05A7053460B706C73C9
:101750004346187D009A019B00F036F98146002827
:10176000A5D043462100186800F074FB9FE70020D5
:10177000B2E701204042AFE7FFFFFF0FFFFFFF7F0F
:10178000F0B5EFF30583CE46474680B505000C0063
:1017900085B0002B12D02C4B0020596A8C4203D804
:1017A0009B6A0130AB4204D305B00CBC904699460D
:1017B000F0BD611A481E8141C8B2F5E7234E02937D
:1017C0000193234B0200009330000B00FFF712FF40
:1017D000031EE0DD20BF7168EFF3108772B60A6860
:1017E000002AFCD0BFF35F8FDAB294463068427BA8
:1017F00062451DD0FF221A4051008946016891447C
:1018000088464946414403398978002913D0F16854
:101810001B0A88464244013A1278DBB29A420FD042
:101820007368BFF35F8F00221A6087F31088B2E7F6
:10183000FF221A40EBE732699342F1D13161EFE7C1
:10184000614600F007FBEBE700400540D80E0020A2
:1018500095120010F0B5EFF30582D6464F46464686
:101860001000C0B51038EFF3108872B6214C236811
:10187000002BFCD0BFF35F8F0123190081401E4D68
:101880001F006963AA461D4D29601D4D2E78AC4688
:101890003500C5402F402B4215D05346194D5F6A85
:1018A00083005D59AF4218D3174A8E439B58624656
:1018B0001670BFF35F8F0022226088F31088002B20
:1018C00006D0984704E0BFF35F8F276088F3108845
:1018D0001CBC90469946A246F0BD0C4B92009C461B
:1018E000624413681360BFF35F8F0023236088F3A3
:1018F0001088EDE7280100D0004005403C7005400D
:101900008917002070170020C0110020D03F05402B
:1019100010B50100024A0348FFF768F910BDC04640
:101920002C47001087170020034B596A0A00986A59
:10193000596A8A42FAD170470040054070B50400E8
:101940000D00EFF3108672B61A4A1368002BFCD014
:10195000BFF35F8F002D1BD02000FFF7F5F916496C
:1019600081420AD02000FFF7F7F901212000FFF79C
:10197000D9F90123A340114A1360114BA400E5508B
:10198000BFF35F8F00220B4B1A6086F3108870BD87
:101990000B4BA200D5500122A2400A4920000B782F
:1019A00093430B700449FFF7E3FA00212000FFF78F
:1019B000B9F9E5E7280100D0551800103860054056
:1019C000C011002089170020F0B54F46D646464684
:1019D000C0B507002C4C616A0D00A66A616AA94275
:1019E000FAD18B4208D805D001201CBC90469946FC
:1019F000A246F0BDB242F7D9EFF3108972B6234880
:101A000001680029FCD0BFF35F8F01252049BD404C
:101A10008C4609781C4C0E002E438846F1B28A464B
:101A2000614650460870391D1A48890065630A519D
:101A3000B9000B50216A0020294219D0616A0800C0
:101A4000A66A616A8142FAD18B4219D801D1B242A9
:101A500016D8C24516D00C4B1F201D625D630123B2
:101A60000740BB400C4A1E381360634642461A705A
:101A7000BFF35F8F0022054B1A6089F31088B4E72B
:101A80000020F5E70120F3E700400540280100D0E1
:101A9000891700207017002080E200E010B5EFF3F6
:101AA000108472B60A490B68002BFCD0BFF35F8F1D
:101AB00001238340074A0848136202789A43027060
:101AC000BFF35F8F00230B6084F3108810BDC04606
:101AD000280100D0004005408917002070B505009E
:101AE0000E001400002924D0002A24D080686B68DE
:101AF0009847296800280ED063001B197200033B29
:101B00009219CB18033A9E7088188A5C002A14D167
:101B1000047030000EE073009B196200033B121941
:101B2000CB18033A9C7088188A5C002A00D05A703F
:101B30000670200070BD0800FCE75A700470300089
:101B4000F8E7C04630B583600023CCB2437301335D
:101B5000047342608373C4730D000068012C06D9BE
:101B6000421C0133DBB2137003329C42F9D1FF21D6
:101B700029404B005918002340180338437030BDEA
:101B8000F8B5CE46474606000C0080B5002907D0C0
:101B90004D0003686D18033D5A195778002F04D182
:101BA00020000CBC90469946F8BD7900C91903394C
:101BB00088464344597889460021597051707368AA
:101BC0003A002100806898473368002814D04246C4
:101BD0009A18947059195B5D002B00D053700F70E8
:101BE000270049463000FFF7CBFF390002003000E4
:101BF000FFF774FF0400D3E7424641465D19AF701A
:101C00009A185B5C002B00D06B701470E9E7C0463B
:101C1000F0B557464546DE464E46E0B50D006B0032
:101C200001685B19DF1E0400C85D83B00192CA1908
:101C3000002850D043001B18033BCB185E78B446F5
:101C4000002E1AD1019E002E42D0E67B002E04D039
:101C500073009B19CB18033B5D70A37B002B00D155
:101C6000A573E57300282FD10023537003B03CBC4B
:101C700090469946A246AB46F0BD72006244033AD4
:101C800089184A78904600224A7091465A7001009D
:101C900032002000FFF722FF43468246002B07D088
:101CA0005B0021684344033BCB185A78002A16D1C5
:101CB000424651462000FFF711FF2168019BCA19D7
:101CC000002BC2D10028CFD043001B18033BCB18F8
:101CD00000219970C8E7019B002BB6D1C4E75000E2
:101CE0008018033809184878834648464870587069
:101CF00041462000FFF7F2FE594680462000FFF7DC
:101D00003FFF414602002000FFF7E8FE8046CFE794
:101D1000F0B54E464546DE465746E0B5467B0400E4
:101D200075000068AD19033D83B00191415D421912
:101D3000002952D04B005B18033BC3185F78BC46A8
:101D4000002F1CD1019D002D44D0E57B002D04D037
:101D50006B005B19C318033B5E70A37B002B00D1A3
:101D6000A673E673002931D10023300053706173EC
:101D700003B03CBC90469946A246AB46F0BD7A0003
:101D80006244033A8018427893460022427091469A
:101D90005A7020003A00FFF7A1FE5B468046002BF8
:101DA00007D05B0021685B44033BCB185A78002ABC
:101DB00017D15A4641462000FFF790FE019B0100D3
:101DC00020684219002BC0D10029CDD04B005B18F0
:101DD000033BC31800209870C6E7019B002BB4D1C9
:101DE000C2E75000801803380918487882464846F0
:101DF0004870587059462000FFF770FE53468346DE
:101E0000002B07D05B0021685344033BCB185A7862
:101E1000002A06D1594652462000FFF75FFE83464E
:101E2000C7E7500080180338091848464F784870B3
:101E3000587051462000FFF751FE390081462000BE
:101E4000FFF79EFE494602002000FFF747FE82464C
:101E5000E0E7C04670B5040000292CD0437B8B42DC
:101E60002ED0056848004018033828188278002AC8
:101E700021D053009B18033BEA5CEE188A4202D142
:101E80001BE0002A08D053009B18033BEB185A783C
:101E90008A42F6D142785A7000230122837043703F
:101EA0002000FFF7B5FE617B02002000FFF716FE61
:101EB0006073012000E0002070BD43783370EBE7D1
:101EC00001221900FFF7A4FE60730120F4E7C04669
:101ED00030B50C2083B000F0B3F9FEF77FFE002888
:101EE0000ED0994B994A1A605A609A60DA601A616A
:101EF0005A619A61DA611A62954A5A6203B030BD3A
:101F0000944CA06700F0A4F90122934B1A60636C13
:101F1000012BFCD10322914B1A608E4A936B012B4B
:101F2000FCD1013301218E4A8E480093043300F026
:101F300037F905238C4A009301218C4800F030F9D1
:101F40008B4B5A68FF2A02D8802252005A608022A6
:101F50007D4C824B21691201854D1A60002907D002
:101F6000606900F07BFA431C5800C0180338FDD2AA
:101F7000E0217F4B02201A681140802252012A433F
:101F800011601968484003210140116004219A68DA
:101F90001142FCD08022802192012A430901116064
:101FA000802252005A60734B2361734B5968FF299A
:101FB00000D85A6003227048674B01211A60020062
:101FC00093681942FCD0E02513681D4080235B0113
:101FD00003431D6012684A40032111401960022129
:101FE000654A93681942FCD0802380219B010343FA
:101FF000090119608021614B490051606361604BA8
:102000005A68FF2A00D8596080225E4BE1691201AC
:102010005B4D1A60002907D0606900F01FFA431C6D
:102020005800C0180338FDD2E02255490B681A4009
:1020300080235B012B431A60802380229B012B436A
:1020400012011A608022414B52004A60E3614E4BFC
:102050005968FF2900D85A6080224C4B216A12012E
:10206000494D1A60002907D0606900F0F7F9431C58
:102070005800C0180338FDD2E02243490B681A40CB
:1020800080235B012B431A60802380229B012B431A
:1020900012011A60802380225B004B602B4BD2021E
:1020A00023623B4B5968914200D25A608022394BDF
:1020B000616A1201364D1A60002907D0606900F08C
:1020C000CDF9431C5800C0180338FDD2E022304936
:1020D0000B681A4080235B012B431A608023802207
:1020E0009B012B4312011A608023DB024B60184BCB
:1020F0006362294B5A68FF2A02D8802252005A6034
:102100008022264BA1691201234D1A60002907D0B5
:10211000606900F0A3F9431C5800C0180338FDD2D1
:10212000E0221D490B681A4080235B012B431A6093
:10213000802380229B012B4312011A6080235B00C5
:102140004B600E4BA361D9E6D4120020006CDC0278
:102150001BB70000008000403CB0004030B00040A1
:10216000002F685900800240008C864700C0024062
:1021700030800040001BB7003C800040405973078E
:102180005480004054B000406080004060B0004087
:102190006C8000406CB000404880004048B0004077
:1021A000F8B50400214817001D000E0000F056F994
:1021B0000100380000F052F9069A2B041203134371
:1021C0002268002A21DB1A4AA21851424A41802182
:1021D00049018C4652420A40164962440A60164937
:1021E0000A60164917008D68AF43FBD1C021221D3C
:1021F0008901114321222660A0600A602268002A1A
:10220000FCDAE36008230B60F8BD3F2221680A4036
:10221000B242D8D1A2681205120D8242D3D1EE216A
:10222000E268C9020A409A42CDD1EDE7001BB7002F
:102230000040FDBF00E0004000F0004000C0004052
:102240008023024A9B000343D3627047008005400D
:10225000AA23064A1B0113602F230549D360054BAF
:1022600019605368002BFCDA7047C04600400240FA
:1022700000B0FA00006002402C4B2D4A70B51A6085
:102280002C4A2D4B2D491A6010008B689843FBD1C6
:102290002B4C2C4B9C4209D2013B1D1BAD08013538
:1022A000AD002D1908CC9847AC42FBD1FFF710FECA
:1022B000254A214B1A60214A9368DB018033FBD108
:1022C0004022224B224C234D9A675A671A67DA66DE
:1022D000AC4208D223682000002B21D00834FEF73E
:1022E000A3FFAC42F6D31C4C1C4DA168C0222800B1
:1022F00000F0D2FBA560FEF7EBFCFEF76DFFFFF7E9
:1023000043F9174C174B9C4209D2013B1D1BAD08EA
:102310000135AD002D1908CC9847A542FBD170BD01
:102320000834FEF773FFAC42D4D3DCE700E0004092
:10233000BFCDFBFEFE7F3C0000F0004000C000402F
:10234000580F0020680F0020FFFFFF0100F0014040
:10235000480F0020580F002000ED00E00000002092
:10236000680F0020700F002000BEFDE710B5FFF7DA
:10237000FBFFC0460FB400B5084883B000F0B2FCC4
:10238000049B002B07D005A91800019100F018F854
:10239000034800F0A7FC0120FFF7E6FF50470010BC
:1023A0006047001010B50148FFF7E4FF64470010D4
:1023B00010B5002800D110BD00F048FCFBE7C04676
:1023C00010B5094A0300146884B0002C08D001221B
:1023D00000910648524203A9A047012004B010BD55
:1023E00000F080FC0020F9E748170020B12300101E
:1023F00001480421014B1847000F00202124001040
:10240000142310B50100188804331B88984710BDA9
:10241000162310B50100188802331B88984710BD99
:10242000F0B5C64600B5002916D0142304000125D6
:1024300098461827890046184346216818883B8823
:10244000984701C4431E984140420540A642F3D13B
:10245000280004BC9046F0BD0125F9E7114A936FAE
:102460009B0813D210665166002905D0FFE7FFE7ED
:10247000FFE7516F106F704704B5002801D00020AE
:10248000C04302F049F8002104BDC046F0B5146E07
:10249000556E576F166FFFF7E5FF14665566576761
:1024A0001667F0BD000000D094464A4A926F920829
:1024B000624601D228E0C046F0B5464E346E756ED5
:1024C000776F366F00F020F89446424A14665566DE
:1024D000576716676246F0BD94463E4A926F92086F
:1024E000624601D254E0C046F0B53A4E346E756E85
:1024F000776F366F00F04CF89446364A146655668E
:10250000576716676246F0BD002B24DB11D0002907
:102510003EDA00B5C943404200D1013100F038F83D
:10252000C943404200D10131DB43524200D1013363
:1025300000BD002AEBD1002801D1002905D00020E0
:10254000C90FC90701D1C043410800B501F0DCFF44
:102550000022002300BD00B500290ADBDB43524204
:1025600000D1013300F014F8C943404200D10131D9
:1025700000BDC943404200D10131DB43524200D18A
:10258000013300F005F8DB43524200D1013300BDB6
:10259000002923D1002B18D1002A0CD0BC460D4FA6
:1025A00038667A6600210023FFE7FFE7FFE77A6FCE
:1025B000386F67467047002801D00748010000B512
:1025C00001F0A2FF0022002300BD02000B0000204A
:1025D00000217047000000D0FFFFFFFF002B00D05C
:1025E000BFE0130C28D1002AE7D080B4114F396620
:1025F0007A66FFE7FFE730B4040C7B6F396F1B048A
:1026000023433B667A66FFE7FFE7FFE7C04684B2F5
:102610007B6F3D6F1B0423433B667A66FFE7FFE752
:10262000C04600232C042D0C7A6F386F00196941C5
:10263000B0BC7047000000D0F0B594460025140EE1
:1026400001D112020835140F01D112010435940F83
:1026500001D192000235D40F01D152000135D40BC3
:102660000134254F7C66254C3C660E0C93B2FFE787
:10267000FFE7FFE73C6F6643360C7703BE467343C4
:10268000DF0B5B04C01AB941130C7343DB18C91A82
:10269000CE086643360CB64493B273431F0F1B013A
:1026A000C01AB941130C73431F0B1B05C01AB94163
:1026B000860D8F023E436643360C092D24DB520AF9
:1026C0007243801A7703460A6643360C16235B1B57
:1026D000DE40DF40BF1964466643821B7046043506
:1026E00006330100D940A840C01900D30131A242ED
:1026F00006D20023F0BD0000000000D0FFFFFFFF66
:10270000121B0130F3D3F1E709277F1BFE4064461B
:10271000A2B27243801A00D20139220C7243130C08
:102720001204821A99410B007046043513370100D8
:10273000F940A840801900D30131002B02D1A242F8
:102740000AD2F0BD013000D30131121BFAD2013B95
:10275000F8D1A24200D2F0BD013000D30131121BEA
:10276000F7E7F0B51C0C00D080E00CB400251C0A83
:1027700004D11B02160E3343120208351C0B04D180
:102780001B01160F3343120104359C0B04D19B002F
:10279000960F334392000235DC0B02D192185B4155
:1027A00001351C00971864410134464F7C66464C45
:1027B0003C660E0CFFE7FFE7FFE7C0463C6F664351
:1027C000360C7703BE4697B27743C01B00D201395F
:1027D000C01B00D201399FB27743C91BC91B170C1C
:1027E00077437E04FF0B801BB941CE086643360C4D
:1027F0000C2D33DBB644120B1F053A431B0B97B26B
:102800007743C01B00D201399FB27743C91B170C15
:1028100077433E043F0C801BB941860D8F023E4337
:10282000664329277F1BFE400C3D7746AF40BF190A
:1028300030BCA2B2ABB272437343801A9941220CEE
:102840007243130C1204801A994102000B000137E5
:10285000001BA941F9D2781E0021F0BD0C277F1B77
:10286000FE4077467F0BAF40FF19E0E700245D1C78
:1028700007D0144F7D663966FFE7FFE7FFE7FFE704
:102880003C6F95B29EB265436643401BB141150C47
:102890001E0C6543664336042F0C3E432D04401B3B
:1028A000B141994204D202000B0020000021F0BD8A
:1028B00001D19042F7D3801A994101349942F2D361
:1028C000F6E70000000000D0FFFFFFFF132370B504
:1028D0001D78012D15D010DD2748FFF799FD274CF5
:1028E00001008022200000F0D7F8022D06D02448F5
:1028F000FFF786FD234B186070BD204C224AA2646E
:10290000F5E72E001D4C204AA3085B421E401D42E5
:102910002FD0330022602020B1006118801B0A6094
:102920004A608A60CA600A614A618A61CA610A6251
:102930004A628A62CA620A634A638A63CA630A6431
:102940004A648A64CA640A654A658A65CA650A6611
:102950004A668A66CA660A674A674008102803D131
:102960008A67CA67A264C2E71E339B00E250A26472
:10297000BDE70023CFE7C046534400008C1700207A
:102980004C330000681700208D29001007B5604601
:1029900001880A0A0230DF2AFAD1C9B2820804D3B8
:1029A000028840880004104300E00068014A50504B
:1029B000039007BD8C17002051434343C9188C4630
:1029C000110C83B24B4310B4040C614392B280B239
:1029D000504362431C041B0C001910BC59411304E2
:1029E000120CC0185141614470470000132310B508
:1029F00012481C78FFF70CFD0100012C0AD003DD02
:102A000080220F4800F048F80E48FFF7F9FC0E4B03
:102A1000186010BD0A4C5422200000F03DF80B4B0A
:102A20006365A365E36523666366A366E366236760
:102A30006367A367E3672362E361E5E7534600004A
:102A40008C1800204C33000068170020512A001019
:102A500007B5604601880A0A0230DF2AFAD1C9B2F6
:102A6000820804D3028840880004104300E0006814
:102A7000014A5050039007BD8C18002001480421E2
:102A8000014B1847100F002021240010014B1B6838
:102A900018470000100F0020014B5B68184700002A
:102AA000100F0020030010B508001B6811009847A4
:102AB00010BDC046F8B54746CE4680B5437D0700F9
:102AC0000D001600002B37D000240020002A1EDD48
:102AD0004B1E98461B4B9946002C2BD043461B5D42
:102AE0000D3B5A425341DBB22A5D0A2A13D001340E
:102AF000A642F1DC864203DD311A3B68281898476C
:102B0000AD19013D2B780D3B5A4253413B750CBC2E
:102B100090469946F8BD002BE9D1A04203DA211A6C
:102B20003B6828189847484602213B68013498477B
:102B30002000DDE73B7DD7E70368110028009847B8
:102B4000E5E7C046D4470010F0B5DE4657464E468E
:102B50004546E0B585B017001C0006000D00FEF7E5
:102B6000E3FE0023324A12184B41002B5BDB314954
:102B700008008A4601F0E8FC01906B1C03D130008C
:102B800001F07CFC0500002C28D12B4B98462B4BE8
:102B90001C68002C15D0002F23D1294F02E0246996
:102BA000002C0ED02368002BF9D03B68002B01D0FD
:102BB000A342F4D120002A003100C0472469002C30
:102BC000F0D1019B002B2AD1681E8541E8B205B0E7
:102BD0003CBC90469946A246AB46F0BD194B984680
:102BE000D5E7174B994602ABDF1D0A239B4602E04F
:102BF0002469002CE5D02368002BF9D04B461B68D4
:102C0000002B01D0A342F3D12A0031002000C0479D
:102C10005B460122390020003B70C047E8E7504680
:102C200001F06AFCD0E70122074B52429FE7C04601
:102C300040420F00500F0020B52A00103C13002026
:102C400044130020A52A0010FFFFFF7FF0B5CE46F9
:102C5000474680B583B06B460500DE1D3070FEF739
:102C600063FE00231A4A12184B41002B2CDB194932
:102C70000800884601F068FC174B07001C68002C10
:102C800016D0164B994602E02469002C10D0236818
:102C9000002BF9D04B461B68002B01D0A342F3D187
:102CA000200001223100FFF705FF2469002CEED13E
:102CB000002F05D1280003B00CBC90469946F0BD0A
:102CC000404601F019FCF5E70122054B5242CEE7E0
:102CD00040420F00500F00203C13002044130020FE
:102CE000FFFFFF7F70B5040001F0C8FB0023010067
:102CF000050001222000FFF727FF084B1C68002C6D
:102D000006D06368002B05D098472469002CF8D1C1
:102D1000280070BD2469002CF3D1F9E73C13002092
:102D200010B501210520FDF7FDFF10BD10B50022F3
:102D30000021024800F068F910BDC0466813002069
:102D400080219022034B8902995080225201DA643B
:102D50007047C046002011508022024B5202DA64B4
:102D60007047C04600201150F0B5C64600B50600B9
:102D700000F024F90C231C4DFF22AB6705201B49F2
:102D8000FEF714F840239846194C402200212000F9
:102D9000FFF77CFE414600230127002221202183EA
:102DA000144967706380E276A1600B6022545F3043
:102DB00060844046208705380F4922540F4A6360DB
:102DC000E160A26213606362E16201F0B5FB8023FF
:102DD0009B052F64EB649023094A3000EA50FFF70B
:102DE000BBFF04BC9046F0BD0000115099030020C9
:102DF0004813002084001050000110508000105033
:102E000010D001000B785B0602D14B78052B00D067
:102E100070478A78014B1A60FAE7C04600001150EB
:102E2000F0B5C64600B5CC7888780A794B797F2111
:102E3000A40701401B02C50913434F00A20F140051
:102E4000324E7A195201B2189070012068405070C9
:102E500000205B055B0DD0701383D4768046CA00DA
:102E6000012D33D02A488446880162448446B44404
:102E70006046826040461060002933D0254AC90070
:102E800090466246414451603F223F339343022CB7
:102E900000D15B0020487A1901685201B218D16054
:102EA0001E4ACB180360514053408022884652018D
:102EB000934228D84346A4061C4380237F197F01F0
:102EC0001B06F6191C4373681C6011E01448844605
:102ED000880162448446B444604682624046106081
:102EE000002909D100236D01761973600D4BF36041
:102EF000012004BC9046F0BD084AC90090466246D5
:102F000041445162C0E7FFF74DFAD3E74813002070
:102F100084001050040010504C1700200000105086
:102F2000800010500001105010B501F005FB10BDDD
:102F300010B57F200C0020404000E409110000196A
:102F40001A00034B4001C01800F05EF8012010BDCC
:102F5000481300207F23180010B508400B420BD007
:102F6000C90980224000401806494001401812015A
:102F7000002101F001FB10BD0223034AC9095B1ABD
:102F80009366EEE748130020002011507F231800BD
:102F900010B508400B4200D110BD00234000C90904
:102FA000411804484901401800220349C37001F048
:102FB000E3FAF1E748130020FFF7FFFF80220D4BF3
:102FC000520410B51A600C4B0C491A6010008B6843
:102FD0009843FBD10A4C9C2200212000FFF756FDAC
:102FE0008022002152010748FFF750FD0923636743
:102FF00010BDC04600E0004000F0004000C00040AE
:10300000000011500000105070B5837E04000D00C8
:103010001600002B19D100232100E3820133A68280
:10302000A3762561A01C1B3101F0BEFA002804D054
:1030300080219023084A8902D150200001F0A4FA8F
:10304000002805D00123237770BD01F08DFAE2E757
:10305000200001F081FAF7E7002011507047C046C8
:10306000024B5878431E9841C0B27047641100204B
:10307000024B18784007C00F7047C046641100200B
:10308000094A10B513785B07DC0F002B05DA18230B
:1030900012781340182B02D00024200010BD034BDF
:1030A0001878FFF74DFEF8E764110020440F002068
:1030B000F8B54746CE4680B52B4F06003B78012039
:1030C000FF2B03D00CBC90469946F8BD532200213B
:1030D0002648FFF7DBFC264C2000FEF797F8254B2F
:1030E0001C60254C20001430FEF7ACF8200001F0E5
:1030F00047F9224B224D1C60224B002B04D02800A4
:1031000000E000BF204B1860204B002499461E4B66
:103110002A7898460FE042461268630094461B19CD
:10312000DB006344002B1DD01B68984701342A78CC
:10313000E4B2A2420DD3A242EDD8A21A53009B18CA
:10314000DB004B441B68984701342A78E4B2A24262
:10315000F1D230003E70FFF707FE3000FFF7E0FDD0
:103160000120AFE70020ADE7440F002064110020EC
:103170001C110020B8110020280F0020BC110020D5
:103180008417002000000000D8100020CC48001058
:10319000F0B5DE4657464E464546E0B5C64B89B0CB
:1031A0009B461B78FF2B00D10DE1C44E05AC356862
:1031B0006A69EFF3108172B61368002BFCD0BFF37D
:1031C0005F8FA9612800210001F048F86A69AB69A6
:1031D000BFF35F8F0021116083F31088002800D1B6
:1031E000F1E06378082BE2D8B54A9B00D3589F469C
:1031F0006368002BDBD0A0689847D8E77F2321794C
:10320000B04D0B405800CA092D18AD182A000127EF
:103210003032D078B843D070D0780337B843D0700C
:10322000002B00D1EEE0A84AEB7C1278934200D349
:10323000C7E05A00D218A54BD2001B689B18002B80
:1032400000D1C0E01D6962792078A368A847AEE785
:1032500001229C4D01212B78042013432B70332332
:10326000EA5C8A43EA54EA5C8243EA540133EA5C4A
:103270008A43EA54EA5C8243EA54237800209A465F
:1032800000F090FC602223791A40602A0DD0402A79
:1032900000D1BDE0DB06DB0E012B00D1C9E0022B23
:1032A00000D121E1002B00D1F9E020780021FFF7C7
:1032B00051FE80212078FFF74DFE78E7814D2B7875
:1032C000DB0700D473E7824B002B00D16FE728782F
:1032D0000007C00FFDF7F8F869E723787A4F9846A2
:1032E0007C4B3A789A46794B002599463B004746F5
:1032F000984611E04A4612686B0094465B19DB0061
:103300006344002B54D05B6838009847434601352E
:103310001A78EDB2AA423AD3AA42EBD8AA1A5300BD
:103320009B18DB005344EEE7664D2B78DB0700D497
:103330003DE7694B002B00D139E7FDF7CDF836E7C3
:103340002378614F9846634B3A789A465F4B002545
:1033500099463B004746984611E04A4612686B0082
:1033600094465B19DB006344002B49D05B6838004E
:103370009847434601351A78EDB2AA422AD3AA42A9
:10338000EBD8AA1A53009B18DB005344EEE74D4DCF
:10339000532200212800FFF779FB1022FF21E81CAF
:1033A000FFF774FB28002022FF211330FFF76EFB8C
:1033B00000F0EEFB494B002B00D1F8E6FDF77EF85C
:1033C000F5E6934233D009B03CBC90469946A246FC
:1033D000AB46F0BD3B4D532200212800FFF756FBC2
:1033E0001022FF21E81CFFF751FB28002022FF21BB
:1033F0001330FFF74BFB00F0CBFB2379AB70D6E625
:10340000304DF8E762792078A36800F0DFFBCEE664
:103410003348002800D148E700F0C4FB01215046A2
:1034200006AA00E000BF002800D0C0E63DE7294B17
:1034300008E7207A0F2800D937E7234A2818C378ED
:103440001278934200D3B8E0204A5D00EB1815686B
:10345000DB00ED18002D00D127E7E86800F0A2FBA3
:1034600001215046EB6806AA9847002800D09EE646
:103470006022150023791D401A4200D015E76379B8
:103480000A3B012B00D910E700F08CFB63790A2B73
:1034900000D181E1504606A900F006FB87E6202A0C
:1034A0004CD0002A00D000E76379092B00D9FCE654
:1034B0000C4A9B00D3589F46440F0020BC110020AB
:1034C000404800106411002084170020D81000200C
:1034D000C9040010CC480010D9040010BD0400102D
:1034E00000000000644800107023217A0B4200D0D5
:1034F000DBE60F330B405B00E818CF090093C94BA4
:10350000C019C07C1B78984250D243009846C64BE5
:1035100040441B68C00098468044002A29D0434696
:10352000002B00D1C1E64346D86800F03BFB434680
:1035300001215046DB6806AA984774E7237A0F2BCF
:1035400000D9B2E6B74AED18EB781278934239D336
:1035500000D0AAE6B54DE86800F024FB01215046F2
:10356000EB6806AA98475EE7002A00D09DE6002394
:10357000984663791A00994602239A43012A00D19A
:10358000C6E04B46002B00D08FE6009B04AA9C4669
:103590006544EF193037FB7802329B07DB0F13804D
:1035A0005046022306A900F097FA00E69842DBD1C4
:1035B0009E4B9846002AB6D1DBE7934200D074E6D2
:1035C0009A4D4AE7984A5D00EB181568DB00ED1844
:1035D000002D00D169E6BEE7A37900931A006B784D
:1035E0009A420CD06B78002B00D051E1009B002B4D
:1035F00000D0DAE08E4B002B01D0FCF75FFF009B80
:10360000504606A96B7000F04FFAD0E56B7804AA1B
:10361000023213705046012306A900F05DFAC6E598
:103620000220297804AB9A1C8B068908DB0F014025
:103630000B43B4E7E088030AC0B20F2B00D934E68D
:103640007C499A008A58974606A800F0B1FA50467D
:10365000A179FFF76BFB02222B7813432B70A6E5B1
:10366000E388012B00D020E608222B785046134334
:1036700006A92B7000F018FA99E5E388012B00D019
:1036800013E608222B785046934306A92B7000F0CE
:103690000BFA8CE5684B002B00D106E600E000BF7A
:1036A000021E00D101E6D37891781B020B435046ED
:1036B00006A900F011FAB6E6604B002B00D1F4E544
:1036C00000E000BF021E00D1EFE55046137806A9C6
:1036D00000F002FAA7E62189FCF7CCFF021EF4D124
:1036E000E3E5022B00D113E1554B002B00D1DCE5C3
:1036F00000E000BF0200002A00D1D6E5D3E7FCF7C6
:10370000ADFF1223020006A9504600F0E5F98AE653
:10371000E288002A09D14B46012B1CD0009BEB18F4
:10372000DF193037FB789B0729D54346002B00D1A2
:103730003DE5D86800F036FA43460121DB6806AA69
:1037400050469847002000F02DFA3423EB5CDB074D
:1037500000D52CE59EE6009BEB18DF193037FB788F
:103760009B07E2D55B461878FFF710FC0222FB7836
:1037700093434A46FB70FB789343FB70D5E75B4667
:103780001878FFF7E7FB0222FB7813430122FB7056
:10379000FB781343FB70C8E704AB9A1C5046012327
:1037A00006A9157000F098F901E5581EC0B2FCF7A3
:1037B0005DFF002800D178E54378022B00D074E546
:1037C0000122C179A9468B11491113400A403021C9
:1037D00012015B0113432A788A4313432B70092398
:1037E000984680444746C37882781B021343C31827
:1037F0000293029BBB4200D88EE001227B780192AB
:103800000B2B04D1FB7801933B78FF187B78042BBA
:1038100000D04AE5029B0025DB1B9BB29846014B7A
:103820001A782BE084170020D8100020CC48001014
:10383000BD0400108C4800100000000000000000D3
:1038400000000000494A6B0012685B199446DB00D7
:1038500063440392002B00D127E5424639005046CD
:103860009B689847082802D9434683425CD2404B64
:1038700001351A78EDB2AA4200D216E59542E1D39D
:10388000AA1A53009B183B4ADB0094466344E4E7C2
:103890005046FFF749FBAB78354F0193002398461C
:1038A000324B3A7899462B004546984610E04A46F6
:1038B00012686B0094465B19DB006344002B25D033
:1038C00050465B68984701353A78EDB2AA4209D371
:1038D0009542ECD3AA1A53009B18264ADB00944663
:1038E0006344EDE74546532200214046FFF7CEF8FA
:1038F0001022FF21E81CFFF7C9F840462022FF21D3
:103900001330FFF7C3F8019BAB706FE64546FAE74B
:10391000FCF7ACFE0200EEE6174B4D46002B00D143
:103920006DE6FCF7C3FD6AE6019B8046002B0ED0D6
:10393000BA78019BD318DBB249468918C878FF28AA
:1039400000D0B2E40132D2B2CD709342F4D14846F5
:103950002B0039004246133000F066FC044B47440C
:103960001B78AB4200D344E79FE4C046D810002048
:1039700084170020CC480010AD040010F8B557465D
:103980004E46DE4645460C00E0B516001F00002AF4
:103990003CD0702398461E4B00259B461D4B9A46F3
:1039A0001AE05B461B78200099465346997800F050
:1039B000FFFB00281CD021004846FFF731FA002801
:1039C00016D0A378DA09012A19D00A9A01351370A2
:1039D0002378E418B54219DA6378052B08D1E37827
:1039E0009B079B0FBB4203D14246A3781A42D8D013
:1039F00000203CBC90469946A246AB46F8BD0B9AC7
:103A0000013513702378E418B542E5DB0120F0E7B7
:103A1000440F0020641100200B007F2010B51840D7
:103A2000DB0940003333C318034A04481168C01847
:103A300000F096FB10BDC046B811002064110020B4
:103A400070B57F240C4060000E4CCD092418641919
:103A50003034E5780020ED0700D570BD0126E5780B
:103A6000094835430078E570FFF762FA0028F4D181
:103A70000122E3789343E370E37803329343E370E6
:103A8000EBE7C04664110020440F00207F22CB09E1
:103A90000A40044952008918C9183031C878C00753
:103AA000C00F70476411002070B50A4E050008224F
:103AB00030000C00FEF7F0FF002161560023C943DF
:103AC000C90F2800F3600022C901B360FFF7B8FFF7
:103AD00070BDC046DC100020F8B5CE464746904683
:103AE000294E80B58146082230000D001F00FEF7E8
:103AF000D3FF4346B3600023F381EC79AB79240212
:103B00001C43231CBC4200D93B1C9FB2B381002C38
:103B100012D0002F1ED04346002B32D03B1C402F2A
:103B20001ED89FB233787F2B1FD80021174A3B0045
:103B30004846FFF785FF09E0002169560023C94385
:103B4000C90F00224846C901FFF77AFF0CBC904616
:103B50009946F8BD33787F2B10D980210022E6E703
:103B600040239FB233787F2BDFD9084C3A0041467F
:103B70002000FEF791FF80212200D8E700210022DB
:103B8000D5E70020E2E7C046DC1000202411002029
:103B900010B5142200210248FEF778FF10BDC04680
:103BA000DC100020014B18617047C046DC1000207B
:103BB00010B5054C010008222000FEF76DFF002320
:103BC000A360E36010BDC046DC100020F8B5394C9E
:103BD0001D0023780600DA09C9098A4210D00020A6
:103BE000002D00D0F8BD21003000FFF70BF923694C
:103BF000002B41D022000321300098470120F1E73B
:103C00007F2B06D8A068002838D02A002A49FEF762
:103C100043FFA368E28959195219E38892B2E281FD
:103C2000A160934214D03F2D12D9A589A81A071C70
:103C300080B240282ED82378BFB27F2B2CD8002109
:103C4000AA4234D01C4A3B003000FFF7F9FEC9E716
:103C50002369002B05D0220002213000984700285C
:103C60000ED0002161560023C943C90F0022300045
:103C7000C901FFF7E5FEB5E70120B3E70020B1E792
:103C800000213000FFF766F930008021FFF762F96C
:103C90000120A7E74027CEE7AA4207D0064C3A000A
:103CA0002000FEF7F9FE80212200CCE780210022CF
:103CB000C9E7C046DC100020241100202C23434318
:103CC0000B4810B5C0184478FFF7CAF9002801D195
:103CD000002010BDFFF7CCF90028F9D1002CF7D057
:103CE00021000020FFF7D2FE01235840C0B2F0E7C8
:103CF000F0100020F0B52C244F464646D6464443EB
:103D0000C0B51C4F1D003B1906008846002059789D
:103D100091469A46FFF780FE002828D04346002BA4
:103D200016D108343C19102D21D82A00494620000C
:103D3000FEF7B2FE2C207043381841782B00220089
:103D40000020FFF77DFE1CBC90469946A246F0BDC0
:103D50005346424608343C191A72601C0F2D06D88F
:103D60002A0049460135FEF797FEADB2E2E7002092
:103D7000E9E7C046F0100020F0B54746CE4680B5D2
:103D800083B06D460F00190000232A70060006223A
:103D90006B7000292FD0A81CFEF77EFE2C247443E4
:103DA000174BA1469846C1444B4600205978FFF76F
:103DB00033FE00280FD0002F12D1083444442300D2
:103DC00006CD06C308232C2046434644220000208B
:103DD0007178FFF735FE03B00CBC90469946F0BDF4
:103DE0004B46083444441F7208222900601CFEF729
:103DF00053FE0923E7E70021A81CFEF747FECDE7A5
:103E0000F0100020F0B557464E464546DE462C24BD
:103E100091460022E0B583B098460CAB1B78444332
:103E20005BB29B460DAB1B781E4E5BB200930EAB94
:103E30000F009A56311905008A46002049780192F0
:103E4000FFF7EAFD002816D0002F1BD122004B46B9
:103E50000832B2181370434653705B469370009B50
:103E6000D370019B137105232C2045437619002044
:103E70007178FFF7E5FD03B03CBC90469946A24639
:103E8000AB46F0BD51460F724946083432195170A5
:103E9000414691705946009BD1701371019B53713B
:103EA0000623E1E7F010002010B52C220021024883
:103EB000FEF7ECFD10BDC046F010002010B52C221E
:103EC00000210248FEF7E2FD10BDC046F0100020C0
:103ED000F0B54B7906000D0083B0032B0AD10879A9
:103EE000C400241A1234A4B2944203D81A4F7B7827
:103EF000002B03D00024200003B0F0BD097869181E
:103F00004B78212BF6D1B9620B780200C9187B1CC3
:103F10000193BB1C009330000323FFF72FFD002803
:103F2000E8D0AB79012B13D001233B71AB78BA6A8F
:103F30003B70137AD1791B020B43B978FB800029BF
:103F4000D9D03A00102330001832FFF779FDD2E7BC
:103F5000EB79FB70E8E7C046F01000201F23F0B5B6
:103F600015780600140083B02B40012B17D15F4F4A
:103F700012793B789A4212D160231A002A402B42D0
:103F800008D0202A0BD163780B2B08D8584A9B0005
:103F9000D3589F4601290DD16378062B0CD0002001
:103FA00003B0F0BD012905D13A1D012321003000E5
:103FB000FFF792FD0120F3E7E378212B7BD0222B42
:103FC000EDD10020FCF74EFB21000200FB88300001
:103FD000FFF782FD0120E3E7012917D00329E9D18A
:103FE000A178444B3971002BE4D0002000E000BFE1
:103FF0000120D5E70129DDD1E1783F4B7971002B14
:1040000004D0002000E000BF0028C8D0210030000C
:10401000FFF74AFD0120C3E7012955D00329C9D183
:10402000E079A37900021843E278A178041C1028F3
:1040300000D910243B00A4B21833002908D001286D
:1040400006D9387E884203D13B00013CA4B2193323
:1040500000200094FCF7E4FA0120A1E77A1D012971
:10406000A3D001209CE70129A4D1E379A0791B0208
:104070000343E278A178181C102B00D9102080B2DD
:1040800000292FD0012B2DD93B0001250138397291
:1040900080B2093300900020FCF7C0FA2D18ABB2B3
:1040A000002B00D17BE73A00210030000832FFF7F7
:1040B00013FD012074E7BA6A002A00D16FE72100DE
:1040C0001378FFF709FD6BE7E379A2791B0213432D
:1040D000102B00D963E73A0021001832FFF7FCFCEF
:1040E00001205DE73B0000250833D3E7F0100020F6
:1040F000E4480010000000000000000070B5164CFD
:104100000500A27882B08A420FD16178914211D124
:10411000124A0125002A05D0210000209AB2083158
:10412000FCF7EAF9280002B070BD627800258A42E7
:10413000F8D1EDE726009BB21836002200210020BE
:1041400000933300FCF76CFA280010233200A178AA
:10415000FFF776FC0500E5E7F0100020F9040010F9
:10416000037870B5DB0704000E00DD0F002B17D1BC
:1041700003785B0701D5280070BD0121300049425A
:1041800000F0D2F92378DB07DD0F002B0AD123786A
:104190005B0708D40422237801251343237002E02F
:1041A0000025E8E70025300000F0A6F9E3E7C04667
:1041B000437902791B0213435B055A0DC3789B07B1
:1041C0009B0F022B05D0032B15D00020012B08D00C
:1041D000704702291CD00020402393424041C0B2C6
:1041E000F6E702394B4259410D4B9C4661449142DE
:1041F0004041C0B2ECE702394B425941F023002064
:1042000049429B001940403191424041C0B2DFE732
:10421000044B9C46624450425041C0B2D8E7C0466D
:10422000FF03000000FEFFFF8A1870B5914207D21D
:104230007F264C78052C04D00C7809198A42F8D8CE
:1042400070BD34008D782C4064000419ED0963556D
:104250000C7809198A42ECD8F2E7C04670B5040020
:1042600000690D00002803D00121494200F05CF9EB
:1042700026896289A088B1B293B2964233D3CA1A12
:1042800092B2002A28D0904208D2814230D30B1A31
:104290009BB26381984203D81B1A9BB29842FBD908
:1042A000E28821685204520C53432800C918FEF7D3
:1042B000F3FB618901254B1C9BB2A08899420ED962
:1042C000002340001B1A9BB220696381002801D0A3
:1042D00000F012F9280070BD002563899BB24000F0
:1042E0008342F1DBEEE74200D21A8A1892B2C8E7A5
:1042F00009188BB26381CDE7F8B50400C0680E00E1
:10430000002803D00121494200F00EF925892089B7
:104310006189A288ADB283B28FB2884228D3DB1BF9
:104320009BB29A4209D8E779FF0906D1E0680028D4
:1043300001D000F0E1F83800F8BD2B00954203D31E
:104340009B1A9BB29342FBD2E28821685204520C22
:104350005343C8183100FEF79FFBA2886B1C9BB229
:1043600052009D4209D99B1A9BB201272381DDE7A8
:104370005100C91B5B189BB2D3E79342F5DBF2E710
:1043800010B50400C068002803D00121494200F0A4
:10439000CBF82069002803D00121494200F0C4F87D
:1043A0000023E06863812381002801D000F0A4F895
:1043B0002069002801D000F09FF8012010BDC04600
:1043C00030B583B0050068460C0000F02FF8072CCC
:1043D00000D90824220069462800FEF75DFB200072
:1043E00003B030BD10B51920FCF7DAFBD0238022D2
:1043F0001B0692045A6210BDD02380221B06920431
:10440000002801D05A6170479A61FCE710B500F0AE
:10441000C3F801235840C0B210BDC04610B50248D1
:1044200000F00CF810BDC0466017002010B508223F
:104430000149FEF731FB10BD6017002030B50025A3
:1044400089B004000922002101A80095FEF71EFB97
:104450000922002105A80495FEF718FB4B236A46A4
:104460006846137004A90D2200F03EF815210822B9
:1044700020006944FEF710FB09B030BD10B583077A
:1044800027D00378002B26D00300032102E01A78FE
:10449000002A1CD001330B42F9D119680F4A104C85
:1044A0008A188A4322420FD1043319680B4A8A18AA
:1044B0008A43224208D104331968084A8A188A4379
:1044C0002242F1D000E001331A78002AFBD1181AF9
:1044D00010BD0300E1E70020FAE7C046FFFEFEFE44
:1044E00080808080F8B5C04601B40248844601BC93
:1044F000604700BF310D002001B40248844601BC72
:10450000604700BF0102002001B40248844601BC9C
:10451000604700BFF50D002001B40248844601BC8D
:10452000604700BFF50D002001B40248844601BC7D
:10453000604700BF7101002001B40248844601BCFD
:10454000604700BF2902002001B40248844601BC34
:10455000604700BFC100002001B40248844601BC8E
:10456000604700BF350A002001B40248844601BC00
:10457000604700BFD109002001B40248844601BC55
:10458000604700BFDD09002001B40248844601BC39
:10459000604700BF9909002001B40248844601BC6D
:1045A000604700BF590C002001B40248844601BC9A
:0845B000604700BF7109002003
:1045B8003031323334353637383941424344454651
:1045C8000000000054696E795553420054696E79B1
:1045D800555342204465766963650000090400006C
:1045E8001201000200000040FECA0440000101025E
:1045F8000301000005010906A1018501050719E06D
:1046080029E71500250195087501810295017508AE
:104618008101050819012905950575019102950182
:1046280075039101050719002AFF00150026FF00F0
:10463800950675088100C005010902A101850209D6
:1046480001A1000509190129051500250195057520
:1046580001810295017503810105010930093115B0
:1046680081257F95027508810609381581257F9572
:104678000175088106050C0A38021581257F950108
:1046880075088106C0C0050C0901A1018503150044
:1046980026FF0319002AFF03950175108100C00544
:1046A800010905A10185040501093009310932090B
:1046B80035093309341581257F950675088102056A
:1046C800010939150125083500463B019501750892
:1046D8008102050919012920150025019520750178
:1046E8008102C00009022200010100A03209040071
:1046F80000010300000009211101000122EF000759
:1047080005810310000500004E6F207370696E6C00
:104718006F636B732061726520617661696C616299
:104728006C650000486172647761726520616C6134
:10473800726D20256420616C726561647920636CF8
:1047480061696D65640000000A2A2A2A2050414EDA
:104758004943202A2A2A0A000A0000004861726494
:10476800206173736572740052656C6561736500CE
:10477800626F6F74325F7732357130383000000005
:10478800312E352E310000007069636F0000000083
:104798007573627377697463686572004A616E2025
:1047A800323020323032340006005250BBFF3CB663
:1047B8009047001006005250E182887F7847001029
:1047C80006005250D3F07542704700100D0A0000E1
:1047D800556E68616E646C6564204952512030786A
:1047E80025780A0065702025642025732077617379
:1047F80020616C726561647920617661696C6162BF
:104808006C65000043616E277420636F6E74696E77
:1048180075652078666572206F6E20696E616374B5
:1048280069766520657020256420257300000000E6
:104838006F757400696E0000AE31001040330010CF
:10484800DA320010AE310010BC32001028330010EC
:1048580050320010FC310010F031001020360010EA
:104868007A360010AA32001060360010AA32001002
:104878004836001034360010AA3200100C360010EA
:10488800D8350010AA320010FE360010E2360010AB
:10489800D6360010AA320010AA320010B83600101E
:1048A800E2360010AA320010AA320010AA32001014
:1048B800AA320010AA320010AA320010AA32001040
:1048C80094360010A93E0010BD3E0010D13E0010E5
:1048D8005D3F0010FD400010000000009E3F0010EA
:1048E800664000105C400010A43F00109E3F00107E
:1048F8009E3F00109E3F00109E3F00109E3F0010FC
:1049080018400010F43F0010D83F00104C454400F8
:0C49180009005250000000021449001079
:10492400AC020010A002001094020010B047001066
:1049340088020010BC470010C84700101849001036
:10494400F0B5C6461E0000B5040015000368EFF379
:10495400108272B619680029FCD0BFF35F8F04235C
:10496400E356002B36DB2168BFF35F8F002008601D
:1049740082F31088D02200271206D7579F4203D112
:10498400002004BC9046F0BD002398460CE0226849
:10499400BFF35F8F4146116083F310882800310014
:1049A40000F08AFE0028EBD12268EFF3108372B680
:1049B40011680029FCD0BFF35F8F22797F2AE6D9E2
:1049C40022682771BFF35F8F0021116083F3108881
:1049D4000120D6E7D0231B061B6823712368BFF38D
:1049E4005F8F0021196082F310880120C9E7C04657
:1049F400F0B5C64600B50D00040000F03DFEFA22F5
:104A040006000F00002328000021920000F064FE3D
:104A140036184F41002F2CDBD0231B061B680025C2
:104A240098460BE02268BFF35F8F156083F310880C
:104A34003000390000F040FE002818D12268EFF35E
:104A4400108372B611680029FCD0BFF35F8F2279FE
:104A54007F2AE7D9424622712268BFF35F8F002183
:104A6400116083F31088012004BC9046F0BD00203F
:104A7400FAE70126014F7642CEE7C046FFFFFF7FEB
:104A84000268EFF3108172B61368002BFCD0BFF3F9
:104A94005F8FFF2303710368BFF35F8F00221A60E7
:104AA40081F3108840BF704700231C4A10B59360FF
:104AB400D3601B4A00219360D3601A4A1A4893605A
:104AC400D3601A4A9360D360194A9360D360194A39
:104AD4009360D360184A9360D360184A9360D3609C
:104AE400174A9360D360174A9360D360164A936061
:104AF400D360164A9360D360154A9360D360154A15
:104B04009360D360144A9360D360F022920000F063
:104B1400BBFD124B124A1A6010BDC0460000105073
:104B24000800105010001050881300201800105076
:104B34002000105028001050300010503800105041
:104B440040001050480010505000105058001050B1
:104B54006000105068001050700010504C17002076
:104B640080011050F0B55746DE464E464546E0B546
:104B7400264B87B09F6D002F24D0254B00249946E7
:104B840001239B46234B01269A4604E00134760018
:104B9400E4B2202C16D03E42F8D04B465A469E65CD
:104BA40063085B00A2439B185B01534418009846BA
:104BB40000F0B6FB00280CD10134B743E4B2760010
:104BC400002FE6D107B03CBC90469946A246AB46BE
:104BD400F0BD42464346D28A03AD9B780192002140
:104BE40008222800009300F04FFD07236B70009B00
:104BF400019A2B71002328000121AA606B7100F037
:104C0400B7FB404600F024FBD6E7C0460000115035
:104C140000301150481300209823C94A70B5D55864
:104C240080232C009B02102684B01C401D4279D0A6
:104C3400C44BC54C9A6AC54B00261A603B23E35CFF
:104C4400022B00D1F6E07B23E35C022B00D102E1CE
:104C5400BB23E35C022B00D10FE1FB23E35C022BBB
:104C640000D11CE13C23FF33E35C022B00D128E19B
:104C74007C23FF33E35C022B00D137E1BC23FF33F9
:104C8400E35C022B00D146E1FC23FF33E35C022BFF
:104C940000D179E1AE4BE35C022B00D189E1AD4B4D
:104CA400E35C022B00D198E1AB4BE35C022B00D117
:104CB400A7E1AA4BE35C022B00D1CAE1A84BE35C59
:104CC400022B00D1D9E1A74BE35C022B00D1ACE16C
:104CD400A54BE35C022B00D196E0A44BE35C022BD2
:104CE40000D1DEE1002E08D1A14B1B78002B04D1AA
:104CF4008021A04A90338902D15001AE904B0C22FE
:104D0400002130009C6C00F0BFFCC02364059B00B4
:104D1400640D7460300033800121802400F028FB8E
:104D2400954EA402EB0600D56AE080235B021D4287
:104D340017D01C4301222321834B5A54DA706A464C
:104D44000023D380C023DB0093808C4A02AB03CAC8
:104D540003C3012101A800F00BFB8022854B9202C2
:104D64001A6580235B011D4231D18023DB011D4282
:104D74001BD180231B021D4204D1AC4200D0AEE102
:104D840004B070BD01AE0C22002130001C4300F0C1
:104D94007BFCA023DB0033800121300000F0E8FA23
:104DA4008022744B12011A65E7E701AE0C22002140
:104DB40030001C4300F068FC8023DB0033800121B9
:104DC400300000F0D5FA10226A4B1A65D1E70026AC
:104DD4001C435B4B1E60FFF767FE0C22002101A8F9
:104DE40000F052FC80236A465B009380012101A8F5
:104DF400167200F0BDFA80225E4B12031A65B4E706
:104E0400FFF7B0FE340090E75D4BE35C002B00D16C
:104E140063E7EF239B00E25C002A00D053E1534B8D
:104E2400E35C022B00D068E7564BE35C002B00D018
:104E34003CE162E73833E65C002E00D103E702333D
:104E4400E25C002A00D1FEE600222000E254203079
:104E540000F030FAF7E67833E35C002B00D1F7E694
:104E64007C22A15C1E00002900D1F1E60023200071
:104E7400A354603000F01EFAEAE6B833E35C002B7A
:104E840000D1EAE6BC22A15C1E00002900D1E4E6C0
:104E940000232000A354A03000F00CFADDE6F83320
:104EA400E35C002B00D1DDE6FC22A15C1E0000299E
:104EB40000D1D7E600232000A354E03000F0FAF933
:104EC400D0E63933FF33E35C002B00D1D0E69E22D9
:104ED4005200A15C1E00002900D1C9E62000002375
:104EE4002130A354FF3000F0E5F9C1E67933FF33F4
:104EF400E35C002B00D1C1E6BE225200A15C1E007F
:104F0400002900D1BAE6200000236130A354FF3009
:104F140000F0D0F9B2E6B933FF33E35C002B00D1E3
:104F2400B2E6DE225200A15C1E00002900D1ABE6ED
:104F340020000023A130A354FF3000F0BBF9A3E606
:104F44000000115000400540481300204013002089
:104F54003B0200007B020000BB020000FB020000D9
:104F64003B0300007B030000BB030000FB030000C5
:104F7400851700200030115010000200000010506E
:104F8400BA030000FA030000F933FF33E35C002B9B
:104F940000D17FE6FE225200A15C1E00002900D150
:104FA40078E620000023E130A354FF3000F082F9BA
:104FB40070E64D4BE35C002B00D170E68F2292002B
:104FC400A15C1E00002900D169E60023A3548823B4
:104FD4009B00E01800F06EF961E6444BE35C002BA3
:104FE40000D161E69F229200A15C1E00002900D13D
:104FF4005AE60023A35498239B00E01800F05AF9C2
:1050040052E63B4BE35C002B00D152E6AF22920008
:10501400A15C1E00002900D14BE60023A354A82361
:105024009B00E01800F046F943E6324BE35C002BAA
:1050340000D14DE6DF229200A15C1E00002900D1C0
:1050440046E60023A354D8239B00E01800F032F96D
:105054003EE6294BE35C002B00D12FE6BF229200F1
:10506400A15C1E00002900D128E60023A354B82324
:105074009B00E01800F01EF920E6204BE35C002BB7
:1050840000D120E6CF229200A15C1E00002900D1AD
:1050940019E60023A354C8239B00E01800F00AF982
:1050A40011E6174BE35C002B00D11BE6FF239B00AA
:1050B400E25C002A00D120E60022E2541C3BE01806
:1050C40000F0F8F819E60022E2541C3BE01800F066
:1050D400F1F80C4BE35C022B00D00EE6A4E62100B1
:1050E4000948694000F0F0FA3A0200007A02000030
:1050F400BA0200007A030000FA0200003A0300003A
:10510400FA030000FB030000D8470010F8B5028B37
:10511400838A04000F00161C9A4200D91E1C8025A5
:10512400B6B29B1BE2789BB2ED00A3823543002A02
:1051340002D09025AD01354301214A40E2706278E6
:10514400002A09D0002B02D18023DB011D43002F4C
:1051540000D02D042800F8BDE368B8019C46320055
:105164006044216900F098FA23699C4680236644D0
:105174001B021D432661A38AE4E7C046836870B519
:1051840004001D68002900D02D0C6378AD05AD0D19
:10519400002B09D1E38AEB18E382238BAB4201D9BC
:1051A4000023A382280070BDE36889019C462A007D
:1051B4002069614400F070FAE38AEB18E382236902
:1051C4005B192361E9E7C04610B504008368002138
:1051D4001B68FFF7D3FF63681B685B0002D5238B52
:1051E400834200D010BD01212000FFF7C7FFF9E77B
:1051F400084A0300126C0020920703D41B78DB09D1
:10520400012B00D070470878023843425841C0B29D
:10521400F8E7C04600001150010010B51B31023000
:10522400FFF7E6FF00280CD00649074B8C46074AD7
:105234009B6A126863449B1A0020C6229A4240412A
:10524400C0B210BDE0FCFFFF004005404013002049
:1052540000238376436103617047C04610B58368B9
:10526400002901D01C682140002A11D08024E400C8
:10527400114322420CD01A6822420BD10A4A0A4036
:105284001A60FFE7FFE7FFE7FFE7FFE7FFE7836851
:10529400196010BD7F2281780448CB091140044A6B
:1052A4009B009A5800F010FAFFFBFFFFEC47001038
:1052B400200F0020436870B5002180251E6804007B
:1052C400FFF724FF134B6D011B6C05439B070FD5A0
:1052D400A3785B060FD0104B1E4080239B053343FD
:1052E40062680021136020002A00FFF7B7FF70BD39
:1052F400A378DB09EFD0A38A002BECD00121200096
:10530400FFF704FFA023054ADB053240054313439E
:10531400E6E7C04600001150FFFFFFAFFFFFFFDFCD
:1053240070B5857E0400002D13D0FFF74DFFA38ACE
:10533400002B01D1280070BD2000FFF76DFF051E72
:1053440003D0012300252377F4E72000FFF7B2FF01
:10535400F0E77F2281780448CB091140034A9B007F
:105364009A5800F0B1F9C0460C480010200F0020F4
:10537400F0B5C64600B5437805000E0084B0042B92
:1053840000D169E031D8022B57D0032B37D14D4BD4
:105394001A78520700D568E04B4E4C4B00249846CF
:1053A40032784B4F0BE0396863008C461B19DB00E5
:1053B4006344002B0AD10134E4B2944211D89442DC
:1053C400F1D3A11A4B005B18DB0043445B69002B4B
:1053D400F1D028786968984701343278E4B294426D
:1053E400EDD904B004BC9046F0BD052B07D1354B74
:1053F4001A78D207F5D504211A788A431A70354BE6
:105404001C686269EFF3108172B61368002BFCD03C
:10541400BFF35F8FA1612000290000F045F96269A4
:10542400A369BFF35F8F0021116083F310883200FA
:105434006978287800F058F9D3E70120214A1178D7
:105444008143117011789943002311700421537022
:1054540013788B431370D2E71A4B1A78D207C0D54E
:1054640004211A780A431A70C9E704211A7801AC96
:105474008A431A7000210C22200000F005F92B78D1
:10548400237005236370134B1F687A69EFF310814F
:1054940072B61368002BFCD0BFF35F8FB96138007C
:1054A400210000F001F97A69BB69BFF35F8F002125
:1054B400116083F3108832006178207800F014F9C9
:1054C4006AE7C0466411002084170020CC4800100D
:1054D400D8100020BC11002082B0EFF3108172B606
:1054E400134B1A6880239B015340C022920113403E
:1054F400104A13600023FA220193019B9200934205
:1055040005DA019B01330193019B9342F9DBD0231C
:10551400C0221B069868064B92011B681340054A7B
:10552400136081F310888007C00F02B07047C04633
:105534000C8001400C900140084810B50378002B02
:105544000AD180230649074A5B051C68CC50043302
:105554009342FAD10123037010BDC0468617002080
:10556400D01100100001001010B5024B0133984710
:1055740010BDC046D0110020054B1A6880239B0043
:105584005340C02292001340024A13607047C04641
:105594000C8001400C900140034B1A68C0239B000F
:1055A4009343024A136070470C8001400C90014001
:1055B4001423F0B5D6464F4646469A468146188887
:1055C4000433C0B598460E001B8827491400984739
:1055D400534607001888434624491B889847534676
:1055E40005001888434622491B8898478046FFF7E0
:1055F400A3FFB847A847FFF7BFFF002C1BD0C0216B
:1056040022000827022049053D008B6A1D401842EC
:105614000BD0002C09D0131B0D2B1FD84B461B7825
:10562400013C0B6601239C46E1442300002D0CD170
:105634001343002BE8D1FFF7AFFFC047FFF794FFF8
:105644001CBC90469946A246F0BD002AF1D00B6ED0
:10565400013A3370130001362343EAE7002DD3D017
:10566400002AD1D0F3E7C04649460000455800005F
:10567400464300007047C04601B40248844601BC5A
:10568400604700BF2919001001B40248844601BCD8
:10569400604700BF8D2A001001B40248844601BC53
:1056A400604700BF992A001001B40248844601BC37
:1056B400604700BFF942001001B40248844601BCAF
:1056C400604700BF8117001001B40248844601BC42
:1056D400604700BF7523001001B40248844601BC32
:1056E400604700BFB929001001B40248844601BCD8
:1056F400604700BF5D300010FA000000E445001070
:10570400CC450010D445001000000000100000003B
:105714000000000000000100000000000000000084
:105724000000020000000000000000000000030070
:1057340000000000000000000000FF000000000066
:1057440001B5486801318E46004770460938014961
:10575400884701BD25110010F00E00200000000054
:10576400700F0020FC120020000000000000000068
:105774000C130020000000000000000010000000D6
:10578400503300004C330000543300005233000007
:105794004D5300004D4300005334000043340000D7
:1057A400384800103C4800108C19002010000C00F0
:1057B40000000000000000000000000000000000E5
:1057C40000000000FF0000000000000000000000D6
:1057D40000000000000000007D2A0010F1230010EA
:1057E400CD280010ED290010310300101D440010D5
:04000005100001E9FD
:00000001FF
